:020000040800F2
:1000000000000220E1050008DD050008F53D0008BC
:10001000DD050008DD050008DD0500080000000022
:10002000000000000000000000000000DD050008E6
:10003000DD05000800000000DD050008793D00082E
:10004000DD050008DD050008DD050008DD05000808
:10005000DD050008DD050008DD050008DD050008F8
:10006000DD050008DD050008DD0500088139000810
:100070008D3900084524000899390008A539000881
:100080007DEB0008652E0008DD050008DD05000891
:10009000DD050008DD050008DD050008DD050008B8
:1000A000DD050008DD050008DD050008DD050008A8
:1000B0003DDF000849DF000855DF0008992E0008E1
:1000C000DD050008A52E0008DD050008ADD70008F5
:1000D000B9D70008B1E90008E1E9000815EA00080D
:1000E000DD050008DD05000800000000DD05000852
:1000F000DD050008DD050008DD050008DD05000858
:10010000DD050008DD05000861DF0008C5D700082F
:1001100049EA00087DEA000811270008DD0500080B
:10012000F926000805270008E9D700081DD80008AF
:10013000B1EB0008DD050008DD050008DD0500085D
:1001400000000000000000000000000000000000AF
:10015000DD050008DD050008DD050008B1EA00083E
:10016000B12E0008DD050008893D0008AD3D0008FE
:10017000DD050008D13D0008DD050008DD050008AB
:10018000DD050008DD050008E5EA000815EB0008BC
:10019000D1D70008DDD70008DD050008DD0500081F
:1001A000DD050008DD050008DD050008DD050008A7
:1001B000A1360008DD050008DD050008DD050008A2
:1001C000DD050008DD050008DD050008DD05000887
:1001D000DD050008DD050008DD050008DD05000877
:1001E000DD050008DD050008DD050008DD05000867
:1001F000DD050008DD050008DD050008DD05000857
:10020000DD050008DD050008DD050008DD05000846
:10021000DD050008DD050008DD050008DD05000836
:10022000DD050008DD050008DD0500080000000010
:10023000DD050008DD05000800000000DD05000800
:10024000DD050008DD050008DD050008DD05000806
:10025000DD050008DD050008DD050008DD050008F6
:10026000DD050008DD050008DD050008DD050008E6
:10027000DD050008DD05000849EB0008000000006E
:10028000DD050008DD050008DD05000800000000B0
:0802900000000000DD0500087C
:1002980010B5054C237833B9044B13B10448AFF3B8
:1002A80000800123237010BD80030024000000009B
:1002B8001017010808B5034B1BB103490348AFF3F6
:1002C800008008BD00000000840300241017010806
:1002D80053B94AB9002908BF00281CBF4FF0FF31A5
:1002E8004FF0FF3000F074B9ADF1080C6DE904CEA1
:1002F80000F006F8DDF804E0DDE9022304B07047F9
:100308002DE9F047089D04468E46002B4DD18A42C0
:10031800944669D9B2FA82F252B101FA02F3C2F1F3
:10032800200120FA01F10CFA02FC41EA030E944084
:100338004FEA1C48210CBEFBF8F61FFA8CF708FBA5
:1003480016E341EA034306FB07F199420AD91CEB7D
:10035800030306F1FF3080F01F81994240F21C81AF
:10036800023E63445B1AA4B2B3FBF8F008FB1033F7
:1003780044EA034400FB07F7A7420AD91CEB04042C
:1003880000F1FF3380F00A81A74240F207816444FC
:10039800023840EA0640E41B00261DB1D440002381
:1003A800C5E900433146BDE8F0878B4209D9002DE5
:1003B80000F0EF800026C5E9000130463146BDE86F
:1003C800F087B3FA83F6002E4AD18B4202D38242D9
:1003D80000F2F980841A61EB030301209E46002D88
:1003E800E0D0C5E9004EDDE702B9FFDEB2FA82F2DD
:1003F800002A40F09280A1EB0C014FEA1C471FFA3B
:100408008CFE0126200CB1FBF7F307FB131140EA21
:1004180001410EFB03F0884208D91CEB010103F1EE
:10042800FF3802D2884200F2CB804346091AA4B2B0
:10043800B1FBF7F007FB101144EA01440EFB00FE84
:10044800A64508D91CEB040400F1FF3102D2A645E9
:1004580000F2BB800846A4EB0E0440EA03409CE788
:10046800C6F12007B34022FA07FC4CEA030C20FA35
:1004780007F401FA06F31C43F9404FEA1C4900FA55
:1004880006F3B1FBF9F8200C1FFA8CFE09FB1811D2
:1004980040EA014108FB0EF0884202FA06F20BD945
:1004A8001CEB010108F1FF3A80F08880884240F295
:1004B8008580A8F102086144091AA4B2B1FBF9F0D9
:1004C80009FB101144EA014100FB0EFE8E4508D9D4
:1004D8001CEB010100F1FF346CD28E456AD9023859
:1004E800614440EA0840A0FB0294A1EB0E01A1423E
:1004F800C846A64656D353D05DB1B3EB080261EBAC
:100508000E0101FA07F722FA06F3F1401F43C5E985
:10051800007100263146BDE8F087C2F12003D840BB
:100528000CFA02FC21FA03F3914001434FEA1C47FD
:100538001FFA8CFEB3FBF7F007FB10360B0C43EAEF
:10054800064300FB0EF69E4204FA02F408D91CEB9F
:10055800030300F1FF382FD29E422DD9023863449D
:100568009B1B89B2B3FBF7F607FB163341EA03413D
:1005780006FB0EF38B4208D91CEB010106F1FF388C
:1005880016D28B4214D9023E6144C91A46EA004683
:1005980038E72E46284605E70646E3E61846F8E615
:1005A8004B45A9D2B9EB020864EB0C0E0138A3E75E
:1005B8004646EAE7204694E74046D1E7D0467BE73F
:1005C800023B614432E7304609E76444023842E7B7
:1005D800704700BFFEE700BF0B480C4A904203D0AB
:1005E800121A0B4910F082FF0A480B4A904203D0B6
:1005F800121A002110F088FF03F024FE10F052FFB9
:1006080000F00AF9FEE700BF000000247C03002484
:100618004417010880030024203D0024704700BFD0
:10062800704700BF21EAE173834214DA002912DB24
:10063800104A53688B420AD907EE901A07EE103A0F
:10064800F8EEE77AB8EE477A87EE870A704793683C
:10065800C21A914202D8B7EE000A704707EE903AE4
:10066800411AB8EE677A07EE901AF8EEE77A87EE45
:10067800870A7047B80300242DE9F0410646594817
:100688000D46594C594F2DED028B00F0BDFA5548D7
:1006980000F0C6FA564801F045FC0021514800F028
:1006A800C1FADFED547A01214E4820EE270A9FED6A
:1006B800528ABDEEC00A84ED040A00F0B3FABEEE19
:1006C800CD0A0221474887ED000A00F0ABFA20EE78
:1006D800080A03214348BCEEC00A84ED010A00F071
:1006E800A1FA464A20EE080A4AF643411368BCEECE
:1006F800C00A8B4284ED020A70D8591C1160D6E9F1
:10070800002110683E4A02EB830210603D4A0968E6
:1007180002EB83034AF643421960636993425AD84D
:100728005A1CDFF8F0804AF6434C374E08EB830E2C
:10073800C4E9052306EB8303344ACEF800001960A8
:10074800136863452ADD012313600023237023699E
:10075800E360002B35D0013BB1EE040A02212148A9
:10076800E36000F065FAD4E90310FFF75BFFA369C3
:100778002A6808EB830806EB83066B68D8ED007AD5
:1007880067EE807ABDEC028BC2ED007AD6ED007A76
:1007980027EE800A83ED000ABDE8F08138684AF642
:1007A800444191FBF0F1581C106093FBF1F201FBFE
:1007B8001233002BC9D02378002BC6D1E368002B55
:1007C800C9D19FED130A02210648BDEC028BBDE892
:1007D800F04100F02DBA01220023A2E701210023F5
:1007E8008CE700BFD8030024B8030024A00300242A
:1007F800A803002400442C4700803B45A4030024A0
:1008080010B102C0000000C0206205C09C03002493
:1008180000000000301308C008B500220D4B0E4838
:10082800DA611A70DA60C3E9052200F08FF8012155
:10083800094800F0CDF9094B09481A7859789FED15
:10084800090A42EA012101F053FB0749024800F076
:10085800BBF9FEE7B8030024D80300247815010883
:10086800A8030024000000008106000808B5084815
:100878000023084A084903628362C0E9033310F081
:10088800FDFD044A05490648BDE8084010F0F6BDDC
:10089800D8030024000000242906000825060008C3
:1008A800A803002400294ED0274BF0B5D0E9002436
:1008B800481E03F10C0E951C03F1100C4E00AC42BF
:1008C80018BF052802EB41058CBF012000206245B6
:1008D80038BFAE452CBF01270027384227D0264411
:1008E800644538BFB64522D39D890026D8894FEA8A
:1008F800510E65F30F06A44602EB8E0E65F31F46F4
:10090800002560F30F0560F31F45104640F8046B9F
:1009180070454CF8045BF9D121F00100C90705D5F1
:10092800998922F81010DB8924F81030F0BD023ABA
:10093800023C023D998922F8021FAA42D98924F86B
:10094800021FF7D1F0BD7047A80500242DE9F0413A
:1009580040F201138E4A012506462DED028BD8B0D0
:10096800C0F8CC21ADF81430002304958DF816306A
:1009780003F01EFC002840F0FA80304604A903F07A
:1009880073FB06F1080000F0ABFA82490DF19408F8
:10099800814B06F10C00814ACDE92513012341461C
:1009A8002792ADF8A03002F0F3FC032201230024C3
:1009B8001AA902A806F110051A9414AF0294CDE9F9
:1009C8001E2300220123CDE9202301220023CDE9A3
:1009D8002223734B1B9303F1007303F540731C939D
:1009E8004FF44173ADF8743003F052F801230AA9AB
:1009F80003A80D940A930C93102303948DF83830B0
:100A0800684B0B9302F056FA039906F1200000F0A8
:100A180065F94FF07E533021029A089328460993CE
:100A28000323CDE9061306A901F04AF9284601F087
:100A380091F92846B0EE408A01F07AF9D0ED007AB3
:100A4800BC46DFF880E14546F8EE677ABEE80F005D
:100A580088EE277AACE80F009EE803008CE80300D4
:100A680086ED727A37F8141001342846113501F0F2
:100A780087FA0C2CF6D106F11407224604234146C6
:100A8800384606F1300500249FED478A01F086FAC2
:100A980009E001F07DFC96ED720A01462846013412
:100AA80001F0C2F92035072CE1B23846F1D9E1B29C
:100AB800013401F06DFC00230146F0EE480A284697
:100AC8001A4696ED720A01F07DF90C2CEAD1374BE3
:100AD800012430461B88F48520F82C3F01F080FF64
:100AE8002246334906F5D87001F0F8F92246314913
:100AF80006F2B71001F0F2F92F4B06F5DF70A6F8F1
:100B0800C0411B88A6F8BE3101F06AFF2B4B06F5E1
:100B1800E170A6F8C4411B88A6F8C23101F060FF55
:100B28000223D6F8CC010FA9109300231030139399
:100B38004BF68033CDE911440F9301F07DFE384622
:100B480001F010FCD6F8CC41237D04F11005DBB987
:100B580028461B4D2368D4E90112009501F0EAFEEE
:100B68000123237558B0BDEC028BBDE8F081044623
:100B780004A930468DF8165003F076FA072C7FF456
:100B880004AF0DF1940810E7284601F009FFDFE7EC
:100B9800A80500240508050905070506050A06062F
:100BA80004020404010A010B6F12033B80150108BB
:100BB8007C15010874150108701501086C150108E9
:100BC800AD08000820150108103001F0C7B800BFB3
:100BD80038B500F1100504462DED028B284601F0CA
:100BE800ABF8284601F0B6F82846B0EE408A01F086
:100BF8009FF8D0ED007AF8EE677A88EE277ABDEC98
:100C0800028B84ED727A38BD38B500F1300400F5F6
:100C1800D8752046203401F03DF9AC42F9D138BDF1
:100C2800704700BF00EB411191ED0F0A704700BFFC
:100C38000129D0F8CC211CD931F002010DD19FED4A
:100C48001B7ADFED1B7A20EE070AB4EEE70AF1EE15
:100C580010FA03DD40F6FF71D1817047B5EEC00A86
:100C6800F1EE10FAF8D4BCEEC00A10EE103A99B2C0
:100C7800F2E7DFED0E7A9FED0E7A60EE277AF4EE5A
:100C8800C77AF1EE10FA0ADCF5EEC07AF1EE10FA46
:100C980009D4FCEEE77A17EE903A9BB201E040F6F1
:100CA800FF739381C8E70023FBE700BF00C04C44F3
:100CB80000F07F4507490022074B01F1600010B49E
:100CC800302459601A611C601A755DF8044BC3E939
:100CD8000202704700000030A8050024F0B58C23FC
:100CE80087B00160002203710124FA26194605AB7A
:100CF8008DF814200296402200932346019405465D
:100D080002F06EF9002840F09B809DF814300DF138
:100D180017074022284603F07F030097CDE90146D4
:100D28008DF814308DF817302346297902F07EF9B2
:100D3800002840F08580042003F0CAF805AB402263
:100D4800284600932346CDE90146297902F048F95F
:100D5800002875D19DF8143040220097284603F0EA
:100D6800BF03CDE901468DF814308DF817302346BE
:100D7800297902F05BF9002862D1042003F0A8F871
:100D88000DF115034322284600932346CDE9014679
:100D9800297902F025F9002852D10DF116034822CD
:100DA800284600932346CDE90146297902F018F92F
:100DB800002845D19DF8153043220097284643F076
:100DC80001038DF815308DF817309DF8163043F073
:100DD8000103CDE901468DF816302346297902F042
:100DE80025F968BB9DF816304822009728468DF8EB
:100DF80017302346CDE90146297902F017F9F8B9E9
:100E080005AB4022284600932346CDE901462979BF
:100E180002F0E6F8A0B99DF814202346019428466C
:100E280002F0CF0402960097402229798DF81440E9
:100E38008DF8174002F0FAF8003818BF012000E0DA
:100E4800012007B0F0BD00BFF0B5102387B0234CD8
:100E5800012200250126002702A920460195CDE997
:100E680002234FF48052CDE904670AF0FFFA6420A8
:100E780003F044FC02A94FF480522046CDE90467F0
:100E880002261027CDE902670AF0F0FA03221023A0
:100E980002A92046CDE9022300230422CDE9042338
:100EA8004FF480520AF0E2FA40F23223042202A9F7
:100EB800019310232046CDE90223019A01230592CC
:100EC8004FF4805204930AF0D1FA40F60601204606
:100ED8000AF0ECFA284607B0F0BD00BFC8050024A8
:100EE8001C4B00221C494FF0400C30B5054689B018
:100EF8000220596007219A601A620124DA620A22E4
:100F08004FF4006EDC6006922022CDE90001042037
:100F18000821CDE9020103201021CDE904010820B0
:100F28006946C3E904024FF4C072181DC3E906C23A
:100F38004FF48052C3E909E20AF06EFA38B928463C
:100F4800FFF782FF003818BF012009B030BD2046E6
:100F580009B030BDC405002440410052614A002157
:100F6800D0B513688EB00A91002B40F0B9805E4B63
:100F780001214FF683700C2411600221D3F8D4208C
:100F88000026032742F48052C3F8D420D3F8D42093
:100F980002F480520092009AD3F8E02042F0100246
:100FA800C3F8E020D3F8E02002F010020192019A81
:100FB800D3F8E02042F04002C3F8E020D3F8E02064
:100FC80002F040020292029AD3F8E02042F00802AE
:100FD800C3F8E020D3F8E02002F008020392039A55
:100FE800D3F8E02042F48072C3F8E020D3F8E02080
:100FF80002F480720492049AD3F8E02042F080024E
:10100800C3F8E020D3F8E02002F080020592059AA8
:10101800D3F8E02042F02002C3F8E020D3F8E02023
:1010280002F020020692069AD3F8E02042F0040269
:10103800C3F8E020D3F8E0300C9403F004030793DE
:101048000323079A0B93CDE9080108A9274805F05F
:10105800C1FC48F23712022308A925480C94CDE9AF
:101068000823CDE90A6705F0B5FC4CF203720223A8
:1010780008A920480C94CDE90823CDE90A6705F0B2
:10108800A9FC40F2FF62022308A91B480C94CDE991
:101098000823CDE90A6705F09DFC4FF60C72022380
:1010A80008A916480C94CDE90823CDE90A6705F08C
:1010B80091FC4FF63F02022308A911480C94CDE990
:1010C8000823CDE90A6705F085FC2022022308A938
:1010D8000A480C94CDE90A67CDE9082305F07AFCA3
:1010E8000EB0D0BDC00500240044025800100258BC
:1010F80000180258000C025800200258001C025820
:10110800001402582DE9F04FDFF8108406460D460A
:10111800144608F118002DED028B89B000AF02F0DB
:10112800AFFDD8F8183073B3D8F81C30D8F804904D
:10113800002B43690BBF4FF0080A4FF0100A4FF01D
:10114800020B4FF0040BB9F1000F2AD0A200EA46B7
:10115800012B02F1070222F00702ADEB020D6846EF
:10116800ADEB020D694600F03F81022B00F0D680FE
:10117800002B6FD02246C847D5462437BD46BDEC64
:10118800028BBDE8F08FD8F81C30002BF5D0D8F8CA
:1011980004904FF0080A4FF0020B4369B9F1000FB1
:1011A800D4D1FB61D8F80030BB61002BE5D0D5481D
:1011B80002F0D8FD6B46BBF1020F786108EE103AD9
:1011C800FB6900F083816A465146A2EBC40295464A
:1011D8006200EA46B2FBFBF2AAEBC40085460AEBC2
:1011E8008200EE46F861ADEB010DF8690EEB820C5A
:1011F800C7F810C0EC46ADEB010D00EB8201CCF84E
:101208000400CCF8081001EB82013869E946CCF8F3
:101218000C1000EB8201CCF800A001EB8202C9E9B6
:1012280000E0C9E90212012B00F06483022B00F0F0
:101238006C82002B00F08081620849466046BB69D9
:10124800984718EE103A24379D46BD46BDEC028BF0
:10125800BDE8F08F002C8DD01A46D8ED0C6A9FEDB2
:10126800B27A8446331D36F922E00CF1080C07EEF9
:1012780090EA33F922E00232F8EEE77A944267EE18
:10128800877A67EEA67A4CED027A07EE90EAF8EED6
:10129800E77A67EE877A67EEA67A4CED017AE2D8AC
:1012A800F9612246C847984ED8ED0D6A0020F969C1
:1012B8002B1D9FED9E7A9FED9E6ADFED9E5A22E0E0
:1012C800F4EEC67AF1EE10FAC0F2C88447F6FE7260
:1012D800D1ED017A45F8202066EEA77AF4EEC77AB8
:1012E800F1EE10FA40F2F080F4EEC67AF1EE10FA60
:1012F800C0F2D58447F6FE7243F820200230083148
:1013080084427FF639AFD1ED007A66EEA77AF4EE23
:10131800C77AF1EE10FAD3D83246D9E7002C3FF459
:1013280029AFD8ED0C6A84469FED787A0022331DE8
:101338008E4656F822100CF1080C07EE901A53F856
:1013480022100232F8EEE77A944267EE877A67EE67
:10135800A67A4CED027A07EE901AF8EEE77A67EE75
:10136800877A67EEA67A4CED017AE2D87146224672
:10137800C7F81CE0C847664ED8ED0D6A0020F96929
:101388002B1D9FED6A7A9FED6A6ADFF894C120E011
:10139800F4EEC67AF1EE10FAC0F279843246D1ED55
:1013A800017A45F8202066EEA77AF4EEC77AF1EEC6
:1013B80010FA40F28780F4EEC67AF1EE10FAC0F225
:1013C8005E84324643F820200230083184427FF69A
:1013D800D3AED1ED007A66EEA77AF4EEC77AF1EED5
:1013E80010FAD5D86246DAE7002C3FF4C3AED8ED40
:1013F8000C6A86469FED477A4FF0000C331D56F86D
:101408002C200EF1080E82F40002A2F5000207EE6D
:10141800902A53F82C200CF1020CF8EEE77A82F4AB
:1014280000026445A2F5000267EE877A67EEA67AA5
:101438004EED027A07EE902AF8EEE77A67EE877AA1
:1014480067EEA67A4EED017AD9D8F9612246C847E7
:10145800314ED8ED0D6A0020F9692B1D9FED337AC6
:101468009FED336ADFF8BCC01FE0F4EEC67AF1EEF8
:1014780010FAC0F2FC833246D1ED017A45F82020FB
:1014880066EEA77AF4EEC77AF1EE10FA18D9F4EE00
:10149800C67AF1EE10FAC0F2DA83324643F8202019
:1014A8000230083184427FF667AED1ED007A66EEED
:1014B800A77AF4EEC77AF1EE10FAD6D86246DBE7DF
:1014C8006246EBE762467DE7324615E7A100D6465D
:1014D8006208073121F00701ADEB010DEA46ADEBDB
:1014E800010D6946ADEB0E0D0AEB8200EC46ADEB43
:1014F8000E0D01EB8202F861E946CCE900A0C9E9CA
:10150800001290E6180600240280FFFF0000003059
:101518000082FF7F0000003482FF7F00FC0500246A
:10152800007E00807E0080FF0000003804FF7FBF3F
:1015380004FF7F3F00FEFF46002C00F0C982BBF18C
:10154800020FD8F8242000F0FA827969C7F80490CD
:1015580002EB810E5FED0C5A8A00DCF808100EF1E0
:1015680004007A611A46DCF80C303B61331DD7F869
:1015780010903D61FD69C7E902CB8C46834636F978
:101588002210D8ED0C7A06EE101A33F9221006EE66
:10159800901A3EF92210B8EEC66A07EE101AF8EE55
:1015A800E66A3BF92210B8EEC77A26EE256A66EE9F
:1015B800A56A27EE257A26EE276A66EEA76A27EE41
:1015C800277A07EE901A51080232F8EEE77A0AEB0A
:1015D8008100944280ED006A05EB810067EEA57AF0
:1015E800C0ED006A0CEB810009EB810180ED007A07
:1015F80098ED0C7A67EE877AC1ED007ABFD8D7F8F4
:1016080004903D69D7E902CB60466208BB69494648
:101618009847D8F82C307A69D8ED0D6A1A441FED2E
:101628003D7A1FED3D6A2B1D904602F1040A5FEDDD
:101638003F5A0022A84ED9E900EC51E0F4EEC67AF0
:10164800F1EE10FAC0F2C78247F6FE7045F82200A4
:101658000CEB0100D0ED007A66EEA77AF4EEC77ABB
:10166800F1EE10FA4BD9F4EEC67AF1EE10FAC0F2A8
:10167800BA8247F6FE70BBF1020F43F822002BD066
:10168800D9F808000844D0ED007A66EEA77AF4EE9F
:10169800C77AF1EE10FA36D9F4EEC67AF1EE10FAFE
:1016A800C0F2CD8247F6FE7048F82200D9F80C0047
:1016B8000144D1ED007A66EEA77AF4EEC77AF1EE2E
:1016C80010FA1ED9F4EEC67AF1EE10FAC0F2AF8223
:1016D80047F6FE714AF82210023294427FF6B1AD05
:1016E80051080EEB81008900D0ED007A66EEA77AEA
:1016F800F4EEC77AF1EE10FAA0D83046A6E73046E5
:10170800B9E73146E6E73046CEE7002C00F0E08145
:10171800BBF1020FD8F8243000F0E1817A69DCF8D7
:10172800081003EB820EC7F804909300DFED6B5AA4
:101738000EF1040000227B61DCF80C303B61331DA4
:10174800D7F810903D61FD69C7E902CB8C46834606
:1017580056F82210D8ED0C7A07EE101A53F822101A
:10176800B8EEC76A07EE101A5EF82210F8EEC76ADC
:1017780007EE101A26EE256A5BF82210B8EEC77A33
:1017880066EEA56A26EE276A27EE257A66EEA76A30
:1017980027EE277A07EE901A51080232F8EEE77A18
:1017A8000AEB8100944280ED006A05EB810067EE48
:1017B800A57AC0ED006A0CEB810009EB810180ED90
:1017C800007A98ED0C7A67EE877AC1ED007ABFD877
:1017D800D7F804903D69D7E902CB60466208BB6937
:1017E80049469847D8F82C307A69D8ED0D6A1A44DA
:1017F8009FED3E7A9FED3E6A131D9246DFF8E4C0E6
:101808000022FB612B1D364ED9E9008E4EE0F4EE26
:10181800C67AF1EE10FAC0F2FC81304645F8220093
:101828000EEB0100D0ED007A66EEA77AF4EEC77AE7
:10183800F1EE10FA49D9F4EEC67AF1EE10FAC0F2D8
:10184800EF813046BBF1020F43F822002AD0D9F8C5
:1018580008000844D0ED007A66EEA77AF4EEC77A5D
:10186800F1EE10FA35D9F4EEC67AF1EE10FAC0F2BC
:10187800C98130464AF82200D9F80C000144D1ED5C
:10188800007A66EEA77AF4EEC77AF1EE10FA1ED95E
:10189800F4EEC67AF1EE10FAC0F2AD813146F8697D
:1018A80040F82210023294427FF6CBAC510808EB84
:1018B80081008900D0ED007A66EEA77AF4EEC77A47
:1018C800F1EE10FAA3D86046A8E76046BAE7614689
:1018D800E5E76046CEE700BF0280FFFF000000306A
:1018E8000082FF7F007E00800000003404FF7FBF7D
:1018F80004FF7F3F002C00F0EB807A690021D8F8C4
:101908002430C7F8109003EB820ED7F81C90930090
:10191800FD610EF104021FED0C6A7B61331D154653
:1019280056F821204808D8ED0C6ABBF1020F82F462
:101938000002A2F5000207EE902A53F8212082F453
:101948000002B8EEE77AA2F5000227EE067A07EE63
:10195800902A0AEB8002F8EEE77A27EE267A67EEFD
:10196800867A82ED007A09EB80024FEA800067EE02
:10197800A67AC2ED007A27D05EF8212082F4000210
:10198800A2F5000207EE902A55F8212082F4000201
:10199800B8EEE77AA2F5000227EE067A07EE902A5B
:1019A800DCF80820F8EEE77A024427EE267A67EE9C
:1019B800867A82ED007A98ED0C7ADCF80C2067EED6
:1019C800877A0244C2ED007A02318C42A8D8D7F84F
:1019D800109060466208BB694946FD699847D8F887
:1019E8002C307A69D8ED0D6A1A441FED407A1FED44
:1019F800406A131D9246DFF8C4C20022FB612B1D0A
:101A0800AB4ED9E9008E4EE0F4EEC67AF1EE10FA4C
:101A1800C0F2C580304645F822000EEB0100D0ED3B
:101A2800007A66EEA77AF4EEC77AF1EE10FA49D991
:101A3800F4EEC67AF1EE10FAC0F2BF803046BBF180
:101A4800020F43F822002AD0D9F808000844D0ED44
:101A5800007A66EEA77AF4EEC77AF1EE10FA35D975
:101A6800F4EEC67AF1EE10FAC0F2AE8030464AF8CB
:101A78002200D9F80C000144D1ED007A66EEA77A6D
:101A8800F4EEC77AF1EE10FA1ED9F4EEC67AF1EE4A
:101A980010FAC0F28B803146F86940F82210023201
:101AA80094427FF6CEAB510808EB81008900D0ED57
:101AB800007A66EEA77AF4EEC77AF1EE10FAA3D8A8
:101AC8006046A8E76046BAE76146E5E76046CEE7C4
:101AD800224649466046BB699847FFF7B2BBC7F83C
:101AE80010B0002298ED0C6A331DDFED726AD7F84A
:101AF8001CB0786956F8221007EE901A53F8221095
:101B0800B8EEE77A07EE901A51080232F8EEE77A53
:101B180027EE267A0AEB810E94420BEB810167EEE1
:101B2800A67A27EE067A67EE867A8EED007AC1ED00
:101B3800007ADFD88300D7F810B07B614DE61A46EB
:101B4800C7F810B098ED0C6A331DDFED5B6AD7F863
:101B58001CB0786936F9221007EE101A33F92210F2
:101B680007EE901AB8EEC77A51080232F8EEE77A13
:101B780027EE267A0AEB810E94420BEB810167EE81
:101B8800A67A27EE067A67EE867A8EED007AC1EDA0
:101B9800007ADFD88300D7F810B07B6134E5F0EE27
:101BA800675AFEEEE45A15EE900A34E7F0EE675AEB
:101BB800FEEEE45A15EE901A6EE7F0EE675AFEEE66
:101BC800E45A15EE900A3AE7F0EE675AFEEEE45A48
:101BD80015EE900A4BE767EEA57AFDEEE77A17EE69
:101BE800900A00B232E567EEA57AFDEEE77A17EEC5
:101BF800900A00B23FE5F0EE675AFEEEE05A15EEA5
:101C0800901A4CE6F0EE675AFEEEE05A15EE900A8E
:101C180030E6F0EE675AFEEEE05A15EE900AFDE562
:101C2800F0EE675AFEEEE05A15EE900A0AE667EE05
:101C3800A57AFDEEE77A17EE901A09B24AE567EE43
:101C4800A57AFDEEE77A17EE900A00B22CE5F0EEE1
:101C5800675AFEEEE45A15EE902A1FE467EEA57A5D
:101C6800FDEEE77A17EE902A12B2FFF731BBF0EEDD
:101C7800675AFEEEE45A15EE902AFFF7FDBBF0EE28
:101C8800675AFEEEE05A15EE902AFFF79BBBF0EE7E
:101C9800675AFEEEE05A15EE902AFFF780BB67EE12
:101CA800A57AFDEEE77A17EE902A12B2FFF724BB69
:101CB80082FF7F0000000030000000387E0080FFB7
:101CC80030B5184C154685B0046004F1080EEC4692
:101CD8000FC98EE80F00D4ED047AF5EEC07A8CE8CF
:101CE8000F00F1EE10FA1ADDB7EE006A94ED057AEE
:101CF80027EE277AC6EE276A84ED0D7AC4ED0C6AC2
:101D08006DB1204640F8185F01F0BAFF0649036933
:101D18000020064A2162A262E36005B030BD0120BE
:101D280005B030BDFC050024C0200030C0000030E4
:101D380000680830704700BFB1F5807F03680A4625
:101D480028BF4FF48072B1F5807F9A6094BF00205D
:101D5800012070470068183001F0F2BF30B5046800
:101D680083B00D46E3694BB1A3680020E26A616A5B
:101D78009B00009004F11C0001F084FFA368074851
:101D8800A26A9B00216A009004F1180001F07AFF12
:101D98000020C4E9005003B030BD00BF0D11000899
:101DA80010B4074B4FF07E513024002203201961F4
:101DB8009C60D8605DF8044B5961C3E906227047FE
:101DC800FC050024F6EE007A9FED166A20EE207AD4
:101DD8000160F7EE006A80ED036A80ED020A27EEE3
:101DE800277AC6EE877AF4EEE67AF1EE10FA11DD7C
:101DF800F0EE667A4FF07E514FF0000C027600222A
:101E0800C0ED017AC0F814C0016143768276C0ED56
:101E1800070A7047F4EEC67AF1EE10FAEAD5F0EE4A
:101E2800467AE7E700000000DFED187AB6EE007AA0
:101E3800F7EE006A9FED166A60EE277A016080ED82
:101E4800036A80ED020A67EE877A86EEA77AB4EE17
:101E5800E67AF1EE10FA10DDB0EE667A4FF0804CBB
:101E68004FF07C514FF48072012380ED017AC0F865
:101E780010C04161028383767047B4EEC67AF1EEF2
:101E880010FAEBD5B0EE467AE8E700BF6F12033BD5
:101E9800000000000268037E128807EE902AFBEE1D
:101EA800C87A1BB1B7EE007A77EE677AD0ED056A8B
:101EB80090ED047A77EEE67A437E67EE877A0BB187
:101EC800F1EE677A90ED030A90ED017A77EEC07A29
:101ED800A7EE270A80ED030A704700BF09884FF074
:101EE800000C8271C0F802C0018000F079BD00BF0B
:101EF80070B5044682B0C1F30726CDB2ADF8041020
:101F080001F0E4FF4FF480724FF001232060A01D20
:101F1800A571A280E671A36002B0BDE8704000F030
:101F28005FBD00BF38B5044601F0D0FF002223682A
:101F38002271834210D00122A57AE37A954020606D
:101F48002271A01D6DB243B900F026FE40B22843AD
:101F5800C0B27F28A0720AD038BD00F01DFEB0FACA
:101F680080F040092843C0B27F28A072F4D101F064
:101F7800ADFF07EE900AF8EE677AC4ED037A38BD34
:101F880082B04FF0000C0323ADF80410BDF8042014
:101F980080F810C00280438002B070472DE9F04FEE
:101FA800BE4E00258FB0BE4C037006F14003426060
:101FB800074601928846202229463046C4F85831FF
:101FC800C4F85461CDE90355CDE90555CDE9075568
:101FD800CDE90955CDE90B550FF096FA202229468F
:101FE80004F59970C4F82151C4F82551C4F8295151
:101FF800C4F82D510FF088FA019B84F8385284F800
:1020080020317A68002A5FD02B464146B64604F54F
:10201800907599464FF0010A03EB0310D1F800B010
:10202800D1F804800133D1F808C02218CE6844F8EA
:1020380000B0C2F80480C2F808C0D660087C2EF848
:10204800029B10740A7C05F8012F002A69D07A686F
:10205800113184F838A29A42DED84FF48022914890
:102068009DF8043008214FF000084FF00009C4F82B
:1020780074310023C4E957020122C4F8643184F89A
:102088007031C4E95A2194F83812C4E9608981B3DF
:10209800C4F88821002284F8713184F878313B78BB
:1020A800C4E96322A3B3012200200121013B84F883
:1020B8009421C4E96801082B2CD8DFE803F0ABB001
:1020C800B5BABFC4C9CFD6009DF804300121C4F801
:1020D8006421C4F874314FF4802384F87021714A64
:1020E800C4E9572308230022C4E95A130023C4E98A
:1020F80060230123002284F87131002384F87831A9
:102108000323C4F888313B78C4E96322002BCAD181
:1021180084F89431644802F029FF034638B1FFBEC1
:10212800FEE77A6811319A423FF676AF95E703A940
:102138005D48039303F078F80546002868D1022229
:1021480040F2FF73CDE9082300230422CDE90A23D6
:1021580094F82031002B00F0D5804FF0060921E0DB
:10216800022B00F08980012B40F0C4809AF80130DE
:10217800012B00F0C180002B4C4B18BF002306A98F
:102188004948CDE9063902F01DFB002840F0BF8020
:10219800013594F82031EDB2AB4240F2B380444BA4
:1021A80053F825902FB207EB071704EB070A5046A0
:1021B80000F016FC05EB051323441B7C042B7DDC87
:1021C800022B00F3918000F08D806319002283F8C0
:1021D8001021E35D002BC3D19AF80130062B00F0E3
:1021E8008580072B00F08A80022B00F09680032B55
:1021F80000F09580002B00F09680012B00F0918074
:10220800042B00F09280052B2A4B18BF0023B6E759
:10221800FFBEFEE703224023C4E966237AE70722CC
:102228006023C4E9662375E70F228023C4E9662387
:1022380070E71F22A023C4E966236BE73F22C0236F
:10224800C4E9662366E77F22E023C4E9662361E7E1
:10225800FF224FF48073C4E966235BE740F2FF1264
:102268004FF49073C4E9662354E740F2FF324FF409
:10227800A073C4E966234DE79AF80130042B37D0E0
:10228800052B3DD0002B40D0012B42D0022B42D051
:10229800032B094B18BF002371E700BFC040003073
:1022A8003806002400200240940700240002B025CC
:1022B800841501080000B84F0020903603233E1D06
:1022C80004EB05084FF0000B264488F8103130461F
:1022D8000BF1010B00F084FB98F8103104365B45D4
:1022E800F5DC76E70123EAE70223E8E7104B46E747
:1022F800104B44E7002342E70F4B40E70F4B3EE704
:102308000F4B3CE70FB0BDE8F08F0E4B37E7FFBE31
:10231800FEE70D4B33E70D4B31E70D4B2FE70D4B28
:102328002DE70D4B2BE70D4B29E70D4B27E700BF9A
:102338000800900C1000C0102000F0148000501D00
:10234800000180210004002A0008302E00106032AD
:102358000040C03A0080F03E000052470000214390
:102368000000844B38B5094C40F2FF724FF0011160
:1023780004F5AE75284602F005FF94F82021D4F83C
:1023880054112846BDE8384002F070BC38060024D5
:10239800034B0F29D3F8540198BF00EB4100704755
:1023A80038060024214B02689A4200D07047204A20
:1023B80000232048D2F8D81030B51F4C41F0200136
:1023C80083B0C4F8C001092004F5E075C4E97103BD
:1023D8004FF48060C2F8D810D2F8D8204FF40061CA
:1023E800C4E9733094F8380202F02002C4F8D4111A
:1023F8004FF40051984201922846C4F8D811C4E914
:102408007833019B14BF00234FF48073C4F8DC3188
:1024180003F008FB08B1FFBEFEE704F5AE73C4F88D
:10242800A851C4F8F83103B030BD00BF0020024005
:10243800004402584000024038060024014803F0D6
:1024480077BF00BFF807002402682DE9F84F4B4B0F
:102458009A4201D0BDE8F88F494D95F83832002BE3
:10246800F8D095F82031002B77D0002405F10C091D
:1024780005F5997605F59077A04613E003F001017C
:1024880017F811BCA9F1080000F094FBBBF1010F8B
:1024980025D895F82031013409F111090236A2B284
:1024A80093422BD917F8012F002AF4D0D5F85431CC
:1024B8000021327833F81400D5F8583103EB0413AF
:1024C80023F81200338801339BB233805FFA83FA12
:1024D8003A789A42D2D88A46A6F80080D0E7CAF35A
:1024E8004001A9F1040000F065FBBBF1020FCAF33B
:1024F8008001CED0484600F05DFBCAE7002395F87E
:102508003802204909229842C5F8C8314FF4806042
:10251800C5F8C011C5F8C4214FF400614FF400524A
:10252800C5F8CC3108BF4FF48073C5F8D821C5E988
:10253800740100221448C5E97732C5F8E42103F094
:1025480071FA08B1FFBEFEE795F82021D5F85411BD
:102558000E48BDE8F84F02F089BB0A4909224FF43A
:102568008060C5F8C831C5E970124FF400614FF4B6
:102578000052C5E97330C5E97512DAE70020024058
:102588003806002440000240F8070024940700247D
:10259800704700BF4F4B02689A4200D070474E4BBD
:1025A800D3F8E81030B541F000514C4C85B0D4F860
:1025B8004821C3F8E810D3F8E81001F00051019160
:1025C8000199D3F8E01041F00101C3F8E010D3F805
:1025D800E03003F001030293029B32F002033DD086
:1025E800013A012A6BD9D4F84C31012B0AD00022C8
:1025F8003620114602F08CFE362005B0BDE830408A
:1026080002F0C4BED4F8483133F0020234D0013BA2
:10261800012BECD8442240233149324DC4F88C10A8
:1026280000212846C4F8B010C4E9242300224FF43E
:102638008063C4E926234FF400624FF40053C4E9D1
:1026480028234FF480724FF48033C4E92A2303F01F
:10265800E9F980B9E560C4F8C440C8E74FF480627E
:10266800032303A8ADF80C208DF80E3000F0B8F95C
:10267800D4F84821B4E7FEE71B4BA2634322636109
:1026880040231A4DC4E9062300224FF480632846EC
:10269800C4E908234FF400624FF40053C4E90A2345
:1026A8004FF480724FF48033C4E90C2303F0BAF975
:1026B80020B9D4F84831A560E464A8E7FEE74FF4F0
:1026C800A062032303A8ADF80C208DF80E3000F0AB
:1026D80087F988E70074004000440258780800240D
:1026E8002804024004090024100402408C08002435
:1026F800014803F01DBE00BF8C080024014803F008
:1027080017BE00BF0409002410B5054C204602F08E
:10271800B9FF04F58270BDE8104009F075B800BF34
:1027280078080024164BD3F84821D3F85811022A08
:102738004FEA510130B583B00CD088B2D3F85C2190
:10274800D3F8644102EB400300930CB16846A047FC
:1027580003B030BDD3F86021002AF9D088B2D3F88D
:102768005C41D3F8645104EB400402EB4002CDE92C
:102778000042002DECD06846A84703B030BD00BF2A
:1027880078080024134BD3F84821022A10B582B0E8
:102798000CD0D3F85C11D3F86421009122B1D3F89E
:1027A800581168464908904702B010BDD3F8602117
:1027B800002AF9D0D3F85C11D3F86441CDE90012AE
:1027C800002CF1D0D3F8581168464908A04702B048
:1027D80010BD00BF78080024094BD3F84821022A0D
:1027E8000DD000B5D3E9581283B0019122B1D3F8C6
:1027F800581101A84908904703B05DF804FB7047D9
:10280800780800240B4BD3F84821022A10D0D3F8BB
:10281800581110B5D3E95824C1F34F0382B04908C1
:1028280002EB430301930CB101A8A04702B010BD0D
:10283800704700BF7808002430B58C463A4C3B4DB1
:102848008DB0046004F5A27EBCE80F00AEE80F006E
:10285800DCF8003020462560CEF8003002F024FE77
:102868000023D4F84C510393C5B11622012D0492CC
:1028780017D00022D4F85411D4F848319142CDE948
:10288800062218BF0222059233F0020235D0013B1E
:10289800012B3CD9002528460DB030BD02230493F6
:1028A800E7E7234A0093C4F80C31C4F81431C4F89C
:1028B8000421C4F81C31CDE9013301F077FCD4F8C8
:1028C80044314BF68032C4F80851002B08BF134638
:1028D800B0FBF3F304F58270C4F8103108F0FEFD84
:1028E8000028D8D120230290694604F5827000930D
:1028F80009F042F80028BCD0CDE703A90A4802F045
:10290800F5FE78B9D4F84831013B012BC2D8102222
:1029180003A9054802F0EAFE051E18BF012528464E
:102928000DB030BD0125B6E77808002400740040DA
:102938000010004070B504681D4682B01046D4F8F7
:102948004C31012B03D0D4F84831022B24D1D4F8D0
:102958005031069A002BC4F85C11C4F864212B4648
:102968000CBF08260026C4F860010A46C4F858516E
:1029780000212046009602F0ADFDD4F860212B46D8
:1029880010212046009602F0A5FD04F5827008F09B
:1029980045FE002002B070BD012002B070BD00BF2E
:1029A80010B50468D4F84C31012B09D1D4F848315A
:1029B80033F0020106D0013B012B0BD9002010BDDA
:1029C800012010BD204602F011FED4F84831013B29
:1029D800012BF3D81021204602F008FE002010BD7C
:1029E8008378022B30B504468FB037D0032B33D011
:1029F800012B31D000230A93E378012B2AD0022B34
:102A080028D000230B93002320460C9301F054FD9B
:102A18000546204601F058FD23780990082B13D865
:102A2800DFE803F01F3245586B7E91A40500594B2F
:102A3800D3F8E02042F48072C3F8E020D3F8E03005
:102A480003F480730893089B09A9284603F0C2FF82
:102A58000FB030BD0B93D6E70A93CDE711230A9345
:102A6800CAE74C4B09A92846D3F8E02042F00102F6
:102A7800C3F8E020D3F8E03003F001030093009B93
:102A880003F0A8FF0FB030BD424B09A92846D3F880
:102A9800E02042F00202C3F8E020D3F8E03003F06F
:102AA80002030193019B03F095FF0FB030BD394B32
:102AB80009A92846D3F8E02042F00402C3F8E02030
:102AC800D3F8E03003F004030293029B03F082FF83
:102AD8000FB030BD2F4B09A92846D3F8E02042F0AB
:102AE8000802C3F8E020D3F8E03003F008030393AA
:102AF800039B03F06FFF0FB030BD264B09A9284692
:102B0800D3F8E02042F01002C3F8E020D3F8E03018
:102B180003F010030493049B03F05CFF0FB030BD77
:102B28001C4B09A92846D3F8E02042F02002C3F83C
:102B3800E020D3F8E03003F020030593059B03F071
:102B480049FF0FB030BD134B09A92846D3F8E02040
:102B580042F04002C3F8E020D3F8E03003F040032D
:102B68000693069B03F036FF0FB030BD094B09A949
:102B78002846D3F8E02042F08002C3F8E020D3F8DA
:102B8800E03003F080030793079B03F023FF0FB0A7
:102B980030BD00BF0044025838B5054601F08CFC32
:102BA8000446284601F090FC01462046BDE838401E
:102BB80004F018B970B506460D4601F07DFC0446D0
:102BC800304601F081FC2A1E0146204618BF01222A
:102BD800BDE8704004F00CB90023122270B586B02D
:102BE800CDE9022304930368032B01D8042305933A
:102BF800061D841D304601F05FFC0546304601F095
:102C080063FC034601A92846019303F0E3FE20462E
:102C180001F052FC034620461C4601F055FC01A970
:102C280003462046019303F0D5FE06B070BD00BFF1
:102C3800634A0368934210B58CB028D0614A934226
:102C480058D0614A934200F09480604A934201D080
:102C58000CB010BD5E4C5F48D4F8E03043F002037E
:102C6800C4F8E030D4F8E03003F002030A930A9B7A
:102C7800FFF7B2FFD4F8F43043F08003C4F8F4301F
:102C8800D4F8F43003F080030B930B9BE0E7504C2F
:102C98005148D4F8E03043F00203C4F8E030D4F8E7
:102CA800E03003F002030193019BFFF795FFD4F88E
:102CB800E83000221F2043F400131146C4F8E8301E
:102CC800D4F8E83003F400130293029BD4F8D83008
:102CD80043F00103C4F8D830D4F8D83003F0010326
:102CE8000393039B02F014FB1F200CB0BDE81040B7
:102CF80002F04CBB364C3948D4F8E03043F080033E
:102D0800C4F8E030D4F8E03003F080030493049B67
:102D1800D4F8E03043F00203C4F8E030D4F8E030EF
:102D280003F002030593059BFFF756FFD4F8E8303C
:102D38000022212043F480031146C4F8E830D4F877
:102D4800E83003F480030693069BD4F8D83043F0A8
:102D58000103C4F8D830D4F8D83003F0010307933E
:102D6800079B02F0D5FA21200CB0BDE8104002F014
:102D78000DBB1B48FFF730FF154B00224820D3F846
:102D8800E840114644F40004C3F8E840D3F8E840AA
:102D980004F400040894089CD3F8D84044F00104D3
:102DA800C3F8D840D3F8D83003F001030993099B3E
:102DB80002F0AEFA48200CB0BDE8104002F0E6BAC6
:102DC8000054004000580040005C0040001C0058BF
:102DD800004402586C0C0024E4090024BC0A0024B6
:102DE800940B00242DE9F0431A4B87B000254FF0CF
:102DF80010099E46EC46184BFF22E04667461A70BB
:102E08000EF118060EF13004CDE90055CDE9025552
:102E1800ADF80090BCE80F00CDE90455AEE80F000E
:102E28009CE803000095ADF800908EE80300B8E830
:102E38000F000FC69CE803000095ADF8009086E8E7
:102E480003000FCF0FC49CE8030084E8030007B019
:102E5800BDE8F08304000024E009002410B5EFF376
:102E6800108472B6084B1A78120602D504B962B6F5
:102E780010BD1B78D82205485BB202FB0300143052
:102E880003F056FAF2E700BFE0090024E409002441
:102E9800014804F005BF00BF700A0024014804F08F
:102EA800FFBE00BF480B0024014804F0F9BE00BF74
:102EB800200C00242DE9F0430F68D8243F4D85B03D
:102EC80007FB04F4032F05EB0403036040DCCB6825
:102ED8000E46012B3CD84DD04FF0D808B646DFF847
:102EE800FC9008FB0758BEE80F00C446ACE80F008A
:102EF800DEF800300DF1100ECCF80030D8F808C01C
:102F080099E80F000EE90F000EEB8703BCF1010FE3
:102F180053F8103CC8F88C3031D0BCF1020F42D0C5
:102F2800BCF1000F35D0317C8C34D823002201202D
:102F38002C4403FB07534900C3E92602C3F8941045
:102F48002046C3E92822C3E92A2204F0DBFB18B192
:102F5800012005B0BDE8F0830146204604F0ACFE30
:102F68000028F5D10146204604F0D0FE003818BFED
:102F78000120EEE70B7C103B672BADD9E8E701F0A9
:102F880013F90F4B98420CBF0E4B0F4BC8F89030FB
:102F9800C9E701F009F90A4B98420CBF0B4B0C4BDF
:102FA800C8F89030BFE701F0FFF8054B98420CBF16
:102FB800084B094BC8F89030B5E700BFE409002476
:102FC800000E27072D0FB0303211D0205F439060DC
:102FD8008A62E030200BA0101A0980103815010809
:102FE8002DE9F041046884B01E46E368BDF82C80E2
:102FF800C3B90D4617468C34204604F059FE2028E4
:10300800FAD120460C9C33463A462946CDE901843C
:103018000A9C009404F0F6FC003818BF012004B0A4
:10302800BDE8F081012004B0BDE8F0812DE9F04150
:10303800046884B01E46E368BDF82C80C3B90D4609
:1030480017468C34204604F033FE2028FAD1204657
:103058000C9C33463A462946CDE901840A9C0094E3
:1030680004F0A6FB003818BF012004B0BDE8F081C9
:10307800012004B0BDE8F081044B10221A7483F8D3
:10308800E82083F8C02183F898227047E4090024D7
:1030980030B5002395B04FF48071062204460B9397
:1030A80006921393CDE90C13CDE90E33CDE9113314
:1030B80001F07EF807282BD004F1100541F2883280
:1030C80006A9284605F034FC28B10123184684F8DF
:1030D8005C3015B030BD0222022306A92846CDE98E
:1030E800002310220123CDE9022300224FF480039C
:1030F800CDE9042305224FF0807306926A460F93A8
:1031080041F2883305F080FD0028DED115B030BDCE
:103118000323012084F85C3015B030BD00000000A6
:1031280070B50023A4B04FF080724FF48075044648
:10313800ADF806300D93CDE910320122CDE90E53DA
:10314800CDE91223CDE91433002943D0F02300F14F
:10315800100508AEADF80630C02341F2883231467A
:103168002846089305F0E4FB28B10123184684F8A3
:103178005C3024B070BD41F288320DF1060128465A
:1031880005F040FC03460028EFD105224FF480717A
:103198001E93284616924FF080721B9321931F921C
:1031A80002AA9FED1F7BCDE91C13CDE922338DEDDB
:1031B800027B9FED1D7B41F2883316A98DED047BC0
:1031C8009FED1B7B8DED067B05F01EFD0028CCD105
:1031D80024B070BD00F1100508AE612341F28832B9
:1031E80031462846089305F0A3FB0028BDD141F2DB
:1031F80088320DF10601284605F082FC0028B4D17A
:10320800BDF80630204623F0780343F04003ADF8BC
:103218000630FFF73DFF00289ED0A6E7AFF30080F9
:103228000000000001000000100000000100000084
:1032380000000000000040002DE9F04F00234FF48B
:10324800807501264FF0807804462DED028BABB0D7
:103258008DF8073013932193299314950E96CDF882
:103268005C80CDE91533CDE91863CDE91A33CDE992
:103278002253CDE92433CDE9273306231C9300F0EC
:1032880097FF072808D004F1100741F288321CA9DB
:10329800384605F04DFB40B10123184684F85C30F0
:1032A8002BB0BDEC028BBDE8F08F4FF0020A4FF057
:1032B800020B4FF0050941F2883308AA1CA93846C9
:1032C800CDF89480CDF870909FED2D8BCDE908ABAB
:1032D8004FF0000A4FF4800B8DED0A8BCDE90CAB53
:1032E80005F092FC0028D7D141F2883238460EA961
:1032F80005F01EFB0028CFD1402341F288320DF1A2
:10330800070138468DF8073005F07CFB0028C3D14B
:1033180041F288330EA902AA3846CDF83890CDF884
:103328005C809FED197B8DED048BCDE906AB8DEDAF
:10333800027B05F069FC03460028ADD1CDF87090FA
:103348004FF00109CDF894804FF00008219308AAA6
:1033580029931CA938462295CDE92333CDE9273393
:1033680041F288338DED0A8BCDE90CABCDE90889A4
:1033780005F04AFC002893D0304684F85C608FE75B
:1033880010000000010000004000000040000000A4
:103398002DE9F043624CA3B00D46046000F008FF2D
:1033A800072800F0A980286823466968AA6807C327
:1033B8001E46AB8926F8043B3046257B677B05F023
:1033C80099FAE0B9574B012D4FF00108E0612361EC
:1033D80014BF4FF480134FF40003C4E9058893FA2F
:1033E800A3F3B3FA83F34FF48079013BC4F8249034
:1033F800C4E90B003046236205F010FA38B1012207
:10340800134684F85C20184623B0BDE8F083662391
:103418000B90139041F2883206A90693CDE90C90DF
:10342800CDE90E00CDE91100304605F081FA0028FB
:10343800E5D1992341F2883206A93046069305F072
:1034480077FA0028DBD105231C9019906A4614935B
:103458004FF08073219014A91D9341F288339FED9A
:103468002A7BCDE91A90CDE91F008DED007B9FEDF9
:10347800287B30468DED027B9FED277B8DED047B0D
:1034880005F0C2FB0028BAD129462046FFF748FEBE
:103498000028B4D12046FFF7CFFE03460028AED15E
:1034A800002FB0D1189330460027002606AA14A989
:1034B800CDF86890CDE91F33EB2314934FF44063A4
:1034C8001B934FF4005317934FF440431C93A023CE
:1034D8001693062319934FF0805321934FF04073AE
:1034E800CDE906671D9305F007FC034600288AD03E
:1034F800434684F85C8086E701230322184684F853
:103508005C2023B0BDE8F08300000000010000004B
:103518001000000001000000000000000000400052
:10352800440D0024005000522DE9F04F8FB0414B5C
:103538000024026800AF9A427C63C7E90944C7E9DE
:103548000B4403D03C37BD46BDE8F08F3A4B40F6FC
:1035580009213A48EB46D3F8D42007F11C0607F1B5
:10356800220A4FF0020942F480424FF00308C3F8E0
:10357800D420D3F8D42002F48042BA60BA68D3F8D1
:10358800E02042F04002C3F8E020D3F8E02002F047
:103598004002FA60FA68D3F8E02042F02002C3F84B
:1035A800E020D3F8E02002F020023A613A69D3F82B
:1035B800E02042F01002C3F8E020D3F8E02002F047
:1035C80010027A617A69D3F8E02042F00202C3F867
:1035D800E020D3F8E030F86103F002033984BB61DE
:1035E800174B7B60BB697B6853F8040F7B6000F066
:1035F80063FF7B680546186800F066FF16F8013B14
:10360800786207F124012846C7F830807B63C7E950
:103618000A9403F0DFF95645E5D100225C201146F3
:1036280001F076FE5C2001F0B1FE3C37DD46BD4678
:10363800BDE8F08F00500052004402580A0A0909F8
:10364800A00D0024114B02689A4200D07047104A1E
:1036580070B5D2F8D4300F4C23F4804304F1180627
:10366800C2F8D43054F8040F00F026FF054620684D
:1036780000F02AFF0146284603F0ECFAB442F1D1E3
:103688005C20BDE8704001F08FBE00BF00500052C2
:1036980000440258A00D0024014805F0B9BB00BF42
:1036A800540D0024084B1A1D981D03F1080110B48D
:1036B8009C1C9A6603F10A02C3E91834C3E91B018A
:1036C8005DF8044B5A677047440D002438B5036809
:1036D80071B9026A00F1280500F5AC74012A0CBF23
:1036E800002140218BBB1D4B5722C0F858310DE0FB
:1036F800426A00F1C00500F5E874012A0CBF0021F8
:103708004021EBB1164B5A22C0F8D0310023204695
:10371800C4E901214FF480524FF480616362626111
:103728004FF48042C4E903314FF48073C4E906239F
:103738004FF40033236202F075F958B1FFBEFEE77B
:10374800084B5822C0F8D031E0E7074B5922C0F89F
:103758005831DBE7C5E92044A56338BD10000240B5
:103768007000024028000240580002402DE9F04352
:10377800821D05468BB0031D05F10A010830CDE90D
:10378800052305F10C02AB69CDE907010992002B6D
:103798003DD0EB69B3FA83F84FEA581801230222A7
:1037A80005AE0AAF4FF006090393CDE9012356F899
:1037B800044B2B792278934216D02B68F3B1012B56
:1037C80002D1F2B10A230493204600F07DFE03469D
:1037D8002046009300F070FE694603F0FBF8BE42F5
:1037E800E5D10BB0BDE8F083697963789942E4D1FB
:1037F800B8F1000FF3D02B68002BE0D1CDF8109072
:10380800E2E76378022B14BF0A230823DBE74FF0B3
:103818000108C3E7534A0368934230B505468BB0A5
:1038280055D02032934252D04F4A934204D020328E
:10383800934201D00BB030BD4C4C4D48D4F8E03029
:1038480043F00103C4F8E030D4F8E03003F001039A
:103858000593059BD4F8E03043F00803C4F8E03042
:10386800D4F8E03003F008030693069BD4F8E03060
:1038780043F04003C4F8E030D4F8E03003F04003EC
:103888000793079BD4F8F03043F40003C4F8F030F2
:10389800D4F8F03003F400030893089BFFF766FFA1
:1038A800D4F8D830296843F001032F4A3048C4F8C7
:1038B800D830891AD4F8D83018BF012103F0010391
:1038C8000993099B0BB0BDE83040FFF7FFBE274CBA
:1038D8002848D4F8E03043F00103C4F8E030D4F8C5
:1038E800E03003F001030093009BD4F8E03043F08C
:1038F8001003C4F8E030D4F8E03003F0100301936B
:10390800019BD4F8E03043F04003C4F8E030D4F829
:10391800E03003F040030293029BD4F8F03043F404
:103928008003C4F8F030D4F8F03003F48003039334
:10393800039BFFF71BFFD4F8D830296843F0010335
:10394800084A0C48C4F8D830891AD4F8D83018BFB7
:10395800012103F001030493049B0BB0BDE8304040
:10396800FFF7B4BE04580140045C0140004402580B
:1039780018100024BC0D0024014802F0D9BC00BF77
:10398800140F0024014802F0D3BC00BF8C0F0024A0
:10399800014802F0CDBC00BF70110024014802F0BC
:1039A800C7BC00BFE81100241A4A0368934210B448
:1039B8000BD02032934208D0174A934216D02032B7
:1039C800934213D05DF8044B7047144B0022D3F890
:1039D8005442C3F85822002CF4D0D3F84802D3E953
:1039E800931223465DF8044B520818470B4B0022EC
:1039F800D3F8B044C3F8B424002CE3D0D3F8AC24F3
:103A0800D3F8A814D3F8A404520823465DF8044B4D
:103A1800184700BF04580140045C0140BC0D002455
:103A2800184A0368934210B40BD02032934208D04E
:103A3800154A934217D02032934214D05DF8044BB4
:103A48007047124BD3E994245208C3F85822002C2B
:103A5800F4D0D3E99201234601EB820100EB820006
:103A68005DF8044B1847094BD3F8AC24D3F8B0449D
:103A78005208C3F8B424002CE0D0D3F8A814D3F823
:103A8800A404E8E704580140045C0140BC0D00248C
:103A98002DE9F04F0C684FF41776754F87B004FB8B
:103AA80006F6012C07EB060AC0F800A000F3A08078
:103AB8000D468E464FF00008D44669A3D3E900238B
:103AC80069A1D1E90001CDE9022306ABCAF8508209
:103AD80003EB8403CDE9040153F810BC53F8083C08
:103AE800CAE992880193BEE80F00ACE80F00BEE86F
:103AF8000F00ACE80F00019B9EE80300CAF828B04D
:103B0800CAF8C0308CE803002B69042B0CD8DFE816
:103B180003F0737D879103004FF41773554A03FB35
:103B280004739A64C3F8E020AA692B6A002A43D078
:103B3800002B4FF4177308BF022203FB047318BF4E
:103B48000322DA6201221A63EA696B6A002A40D109
:103B5800191E4FF4177318BF012103FB0473C3E93F
:103B680031126B69022B05D8434A12F80380434A85
:103B780052F823904FF4177306F12800424649463D
:103B880003FB04740023384463646363E365C4F887
:103B9800DC30C4F8CC30C4F8F430C4E90F33C4E9DD
:103BA8001533C4E93533C4E93B33022307F0D2F9AE
:103BB800002849D0FFBEFEE7191E4FF4177318BF3F
:103BC800012103FB0473C3E90B12EA696B6A002A3B
:103BD800BED0002B4FF4177308BF022203FB0473F7
:103BE80018BF0322C3F8C4200122C3F8C820B8E7CD
:103BF800012007B0BDE8F08F4FF417734FF4FA5265
:103C080003FB04739A64C3F8E0208DE74FF417733D
:103C18004FF47A5203FB04739A64C3F8E02083E7F5
:103C28004FF417734FF4FA4203FB04739A64C3F812
:103C3800E02079E74FF417734BF6803203FB0473E7
:103C48009A64C3F8E0206FE706F1C00002234246F9
:103C58004946384407F07EF90028CAD0FFBEFEE77F
:103C680004580140045C014024580140245C014090
:103C7800BC0D002400770100C4150108C81501080F
:103C88000068704770B5046882B015460E46C4F8DF
:103C98005032C4E99212069AC4F85422A269012A41
:103CA80026D0626A012A9AB211D0294604F1C000CE
:103CB800019207F00BFA236A019A012B10D02946CA
:103CC80004F1280007F002FA002002B070BD04F1E8
:103CD800C000019207F08CFA236A019A012BEED1F9
:103CE800314604F1280007F083FA002002B070BDC5
:103CF800226A012A9AB211D0294604F128000192B9
:103D080007F0E4F9636A019A012B10D0294604F1FF
:103D1800C00007F0DBF9002002B070BD04F12800F4
:103D2800019207F065FA636A019A012BEED13146D8
:103D380004F1C00007F05CFA002002B070BD00BFBB
:103D480003681B69042B05D8044A02EB830393ED2F
:103D5800000A70479FED020A704700BFD41501089A
:103D680000803B470368D3F858027047704700BF8C
:103D780008B500F0B1FCBDE8084001F091BB00BFF8
:103D8800064808B503680BB103F036F80448036821
:103D98001BB1BDE8084003F0E5BF08BD801600244C
:103DA80078120024064808B503680BB103F024F81C
:103DB800044803681BB1BDE8084003F0D3BF08BD41
:103DC8008016002478120024064808B503680BB151
:103DD80003F012F8044803681BB1BDE8084003F07B
:103DE800C1BF08BD8016002478120024364BDA6A59
:103DF800520062D59A6A9A6A9A6A9B6A180600D52E
:103E080000BE314B9B6A990600D500BE2E4B9B6ABB
:103E1800DA0600D500BE2C4B9B6A1B0700D500BEF6
:103E2800294B9B6A980700D500BE274B9B6AD90788
:103E380000D500BE244B9B6A1A0400D500BE224B55
:103E48009B6A9B0400D500BE1F4B9B6AD80400D513
:103E580000BE1D4B9B6A190500D500BE1A4B9B6A14
:103E68005A0500D500BE184B9B6A9B0500D500BEBD
:103E7800154B9B6AD80500D500BE134B9B6A990168
:103E880000D500BE104B9B6ADA0100D500BE0E4B70
:103E98009B6A1B0300D500BE0B4B9B6A580300D5D9
:103EA80000BE094B9B6A990300D500BE064B9B6A6E
:103EB800DA0306D400BE00BEFEE7DB6A9B07FAD52C
:103EC800F8E700BEF6E700BF00ED00E000F010BC28
:103ED80000F014BC2DE9F041CEB004464C2200217C
:103EE8000AA80DF011FB2022002102A80DF00CFBFE
:103EF800BC2200211EA80DF007FB022004F0A6FB3F
:103F08002368012B4FF0000354D0534A0225019334
:103F1800C820D16A514B21F00101D162D26A02F066
:103F2800010201929A6942F440429A619B6903F442
:103F380040430193019B494A93699B04FCD5484936
:103F48000224002201268B6A04274FF0080823F078
:103F5800030323438B62052316900AA818934FF492
:103F680080331096179419941597CDF86880CDE989
:103F78001B222122CDE91344CDE90A2305F050F88C
:103F880000B1FEE73F220323294602A8CDE9022318
:103F980000220823CDE9042340224023CDE906234B
:103FA80040234FF48062CDE9082305F067FB034600
:103FB800B8B1FEE7294A04250093F0209169264B01
:103FC80041F440419161926902F440420092DA6AF8
:103FD80042F00102DA62DB6A03F001030093009BFE
:103FE800A9E720224FF4805125934FF440152B92D6
:103FF80080222D931EA83093269135914FF480711D
:10400800249234920C223394439140F22711209247
:104018001022CDF884802A971F96CDE92E34CDE959
:104028003B334FF48033CDE9224631930024469345
:104038000623CDE93E4527934FF48063094C2C9322
:104048001E94CDE9281205F075FD00B1FEE704F0D5
:1040580023FB4EB0BDE8F081000400580048025828
:10406800004402580F130F032DE9F0410D46044692
:1040780084B0D1E9000184E8030000F0FDFAAE79CC
:10408800002E37D06F460AF07DFEFEF7ABFE09F032
:1040980049FB0AF001FC2B79002B54D16B799BB1B9
:1040A800BFF34F8FBFF36F8F3C4B0022C3F85022F2
:1040B800BFF34F8FBFF36F8F5A6942F400325A61D2
:1040C800BFF34F8FBFF36F8F4FF0FF3200230024F1
:1040D80000253946324802928DF80C30CDE900456A
:1040E80009F040FF2E4809F0A5FF08F04BFF04B087
:1040F800BDE8F08120466F46FFF7ECFE012401F091
:104108007DF94FF040534FF4807838460193254BA2
:10411800ADF80040CDE9023801F08EF919224FF0D0
:10412800404338468DF80F40ADF80D808DF80140BA
:104138008DF80A608DF80820019301F07DF90420BC
:1041480001F06AF99FE7154C0023C4F88430BFF3E7
:104158004F8FD4F8803043F6E07EC3F3C906C3F32B
:104168004E334FEA431C0CEA0E00334640EA837292
:10417800013BC4F860225A1CF8D1ACF1200C1CF1A8
:10418800200FF0D1BFF34F8F636943F4803363612D
:10419800BFF34F8FBFF36F8F80E700BF00ED00E0E4
:1041A800741200240E00010305F098BB05F0B2BBA1
:1041B8001C4B9B6803F17842B2F5003F25D3B3F559
:1041C800803F20D303F16042B2F5003F1FD303F1D3
:1041D8005C42B2F5002F1CD303F17042B2F5902F68
:1041E80019D303F14842B2F5803F16D303F1804258
:1041F800B2F1806F13D303F1E043B3F5000F2CBF86
:1042080008200720704701207047002070470220CF
:104218007047032070470420704705207047062028
:10422800704700BF00ED00E003480023034A04493B
:1042380003600DF023B900BF7412002400000024AD
:10424800753D000810B4204C0022204B83B0D4F8F0
:1042580088101F4841F47001C4F8881019681D4C73
:1042680041F0010119601A61196808401A4918607B
:104278009A61DA611A629A62DA621A635A639A6315
:10428800DA631A645A64186820F4802018601A6681
:10429800D3F8DC2042F06042C3F8DC20D3F8DC30ED
:1042A8000193019B23681940B1F1005F03D20B4BC6
:1042B8000122C3F80821044B4FF000629A6003B052
:1042C8005DF8044B704700BF00ED00E00044025861
:1042D8007FEDF6EA0010005C0000FFFF008000514F
:1042E80000F57171D0F8040408F034BAC1EBC103C9
:1042F80000EB8303D0F80404D3F8082208F058BA76
:10430800C1EBC10300EB8303D0F804049A6C08F0F6
:104318008DBA00BFD0F8040408F02CBBC16810B5F2
:10432800044619B1022900D0FEE70121D4F804049B
:1043380008F00AFBD4F80404BDE8104008F0DCBA21
:1043480010B50446D0F8040408F002FB2268D2F83D
:10435800003E43F00103C2F8003E236A23B1034A3A
:10436800136943F00603136110BD00BF00ED00E0C0
:10437800D0F8040408F0F6BAD0F8040408F00ABB30
:10438800D0F8040408F004BBD0F8040408F004BB17
:10439800D0F8040408F002BB9446D0F898021A46F4
:1043A80008B5634604F042F8032802D8024B185CAB
:1043B80008BD022008BD00BFF8150108D0F8980212
:1043C80008B504F0C1F8032802D8024B185C08BDF0
:1043D800022008BDF8150108D0F8980208B504F0C5
:1043E800F7F8032802D8024B185C08BD022008BD64
:1043F800F81501080A06D0F8983206D4C1EBC101B5
:1044080003EB810191F8FE01704701F07F01C1EBD8
:10441800C10103EB810191F83E007047D0F8980282
:1044280008B503F0EDFF032802D8024B185C08BD5D
:10443800022008BDF8150108D0F8980208B504F064
:104448005BF8032802D8024B185C08BD022008BD9F
:10445800F8150108D0F8980208B504F025F80328E3
:1044680002D8024B185C08BD022008BDF8150108E7
:10447800D0F8C00208F040BDD0F8C00208F054BD22
:10448800D0F8C00208F05CBD704700BFD0F8C00289
:1044980008F042BDD0F8C00208F042BDD0F8D00301
:1044A80008B503F069F8032802D8024B185C08BD68
:1044B800022008BDFC150108024B027853F82200BF
:1044C800704700BF20160108024B427833F81200EB
:1044D800704700BF001601088CB00A2814D8DFE81E
:1044E80000F01523313F4D5B6977859306004D4BEE
:1044F800D3F8E02042F48062C3F8E020D3F8E0303B
:1045080003F480630B930B9B0CB07047454BD3F8B7
:10451800E02042F00102C3F8E020D3F8E03003F0D5
:1045280001030193019BEFE73E4BD3F8E02042F0F3
:104538000202C3F8E020D3F8E03003F0020302934C
:10454800029BE1E7374BD3F8E02042F00402C3F8BE
:10455800E020D3F8E03003F004030393039BD3E790
:10456800304BD3F8E02042F00802C3F8E020D3F83B
:10457800E03003F008030493049BC5E7294BD3F804
:10458800E02042F01002C3F8E020D3F8E03003F056
:1045980010030593059BB7E7224BD3F8E02042F0C0
:1045A8002002C3F8E020D3F8E03003F0200306939C
:1045B800069BA9E71B4BD3F8E02042F04002C3F862
:1045C800E020D3F8E03003F040030793079B9BE714
:1045D800144BD3F8E02042F08002C3F8E020D3F86F
:1045E800E03003F080030893089B8DE70D4BD3F868
:1045F800E02042F48072C3F8E020D3F8E03003F4FE
:1046080080730993099B7FE7064BD3F8E02042F4B7
:104618000072C3F8E020D3F8E03003F400730A9383
:104628000A9B71E700440258704700BF0F4B1B7884
:104638000BB90120704710B504464FF47A700C4A44
:10464800B0FBF3F31068B0FBF3F000F0C1FE0F2CE1
:1046580000D808B1012010BD002221464FF0FF30DC
:1046680000F056FE034B00201C6010BD54000024CF
:104678004C0000245800002438B50320124D00F0E7
:1046880035FE124C04F05AFF114A12499369C3F3DC
:104698000323CB5C03F01F0320FA03F30E202B60E7
:1046A800926902F00F028A5C02F01F02D340236075
:1046B800FFF7BCFF10B10124204638BD0446FFF7C0
:1046C800B3FF204638BD00BF4C0000245000002432
:1046D80000440258E8150108034A044B11681B7886
:1046E8000B441360704700BF441900245400002491
:1046F800014B1868704700BF4419002438B50446B8
:10470800FFF7F6FF0546631C02D0044B1B781C44D8
:10471800FFF7EEFF431BA342FAD338BD5400002431
:10472800014B1868000C70470010005C704700BF10
:10473800806B08B5FFF7FAFF08BD00BF836B5A6DA1
:1047480012F0500F5A6D10B51DD1196842F400725D
:104758005A650A6812F0080FCA681BD012F4406F35
:104768000DD1CA6894040AD45A6D22F480725A652D
:104778005A6DD10403D45A6D42F001025A651846A5
:10478800FDF762FE10BDD2060AD4DB6CBDE810400E
:10479800DB6C18479007E7D01846FDF755FEF1E7A0
:1047A8001846FDF7F5FE10BD806B08B5436D43F064
:1047B80040034365836D43F004038365FDF7E8FE1A
:1047C80008BD00BFF0B5002283B0019290F85020D8
:1047D800012A00F01C81034601201A6883F8500062
:1047E8009468640700F18A800C68C4F31305002DEF
:1047F80040F08F80C4F38464A0404D684FF01F0ED2
:10480800D6694FEA951C30430CF00C0CD06105F0CA
:104818001F0002F1300584400EFA00FE5CF8050026
:1048280020EA0E0004434CF80540906840076ED417
:10483800956815F0080547D10C68072002F11406A1
:10484800B94F4FEAD45CC4F304540CF0040C00FADA
:1048580004FE886800FA04F45CF8060020EA0E00FA
:1048680020434CF80600386800F07040B0F1805FD3
:1048780000F0C580D068D668C70600F1E880C6F3A6
:1048880082064869760000FA06F60F69042F00F0E0
:10489800C18002F16004086854F827C000F0F840AD
:1048A8000CF0004C40EA0C00304344F82700487EE6
:1048B8000E69012854F8260008BF4FF0004520F083
:1048C8000040054344F826509068C40714D4CE68C5
:1048D800086806F01807954CD2F8C050FC40C0F3A1
:1048E8001307044025EA07052C43C2F8C040904C42
:1048F800A64246D0002816DB002003E05A6D42F09D
:1049080020025A65002283F8502003B0F0BD906859
:10491800DAE794FAA4F5B5FA85F5C4F3846405F0EA
:104928001F05A84069E783498A4200F0B68001F56F
:1049380080718A4200F0B1807F4D804CA968A468DC
:1049480001F0E076E44304F00104002C00F0B480A8
:104958007B4CA04200F0FC807A4CA04200F01A8107
:10496800794CA042C8D14902C6D474498A42C3D1FD
:10497800AA68002022F0E072324342F48002AA6062
:10498800C0E7002F6AD090FAA0F4B4FA84F4013496
:1049980004F01F04092C00F2A48090FAA0F4B4FAE1
:1049A80084F490FAA0F5B5FA85F5013401260135AD
:1049B800A40605F01F0504F0F84406FA05F52C4393
:1049C80090FAA0F0B0FA80F0304400F01F0000EB3D
:1049D800400000052043C60D02F11405C0F3045041
:1049E800072406F0040604FA00F7745924EA0704B9
:1049F8008F6807FA00F02043705108687AE7D66894
:104A08004869C6F38206760000FA06F63DE70220FA
:104A180003B0F0BD106E0C6800F0F840A506B0EBCE
:104A2800846F30D0506E00F0F840854226D0906EEA
:104A380000F0F84085422BD0D06E00F0F840854257
:104A48007FF442AFD06E20F00040D0663CE7760895
:104A5800486906F0080600FA06F616E7800E441CB8
:104A680004F01F06092E2DD8A406012004F0F844EE
:104A7800B040044306EB46000005ABE7506E20F05B
:104A880000405066D3E7106E20F000401066C9E77A
:104A9800906E20F000409066CEE7264C2B4D04F532
:104AA8008074A96854F8F86CA468344301F0E0767F
:104AB800E44304F0010448E75A6D012042F0200263
:104AC8005A651FE706EB4600A50601241E3805F0C7
:104AD800F84504FA06F60005354340F0007028430F
:104AE80079E790FAA0F5B5FA85F590FAA0F4B4FA4A
:104AF80084F4013501260134AD0604F01F0405F0E5
:104B0800F84506FA04F4254390FAA0F4B4FA84F4BC
:104B1800344404F01F0404EB4404A4F11E0000050F
:104B280040F00070DBE700BF0010005CFFFF0F00E3
:104B38000000FF470020024000630258006002584E
:104B4800000084CB000052C70000B8CF0023024009
:104B580008023FF5D1AE17498A427FF4CDAE164A16
:104B6800A9681268154821F0E07192093143A0FB49
:104B7800020241F400019209A96052000192019ACF
:104B8800002A3FF4B9AE019A013A0192019A002A2B
:104B9800F9D1B1E611F080707FF4AEAE05498A42D2
:104BA8007FF4AAAEAA6822F0E072324342F0807223
:104BB800AA60A7E6006002584C000024632D3E0559
:104BC80003689A68D20701D5002070479968214A7E
:104BD800114270B5044608D0636D012043F01003FC
:104BE8006365A36D0343A36570BD99681A4A0A40BB
:104BF80042F001029A60FFF77BFD2368174A0546D9
:104C080093421ED002F5807293421AD0144A9268D9
:104C1800114E0AE09A68324042F001029A60FFF7AA
:104C280067FD401B0228D7D823681A68D2070FD41B
:104C38009A68D107EED5FFF75BFD401B0228F3D930
:104C4800CAE7084A9268D006E2D0074A9342DFD101
:104C5800002070BD3F000080C0FFFF7F00200240A1
:104C68000063025800230240002102402DE9F04170
:104C78003A4D044600680F461646A84219D0384BEC
:104C8800984216D0374DAB688068420716D494F81E
:104C98005020012A12D003F01F080122B8F1090F91
:104CA80084F850200DD90023012084F85030BDE845
:104CB800F0812D4DAB6880684207E8D50220BDE839
:104CC800F08140F2212323FA08F3DB4313EA0205BB
:104CD800E9D12046FFF774FF002839D1626D234BD4
:104CE8002168134043F480736365B8F1000F02D064
:104CF8001B4B994203D0636D23F480136365636D86
:104D080013F4805328D0A36D23F00603A365E06C49
:104D18003346174D3A464031C563164D0564164D66
:104D2800C5641C2541F8405C002584F8505051F8B2
:104D38003C5C45F0100541F83C5C01F031F8226814
:104D48000E4B91680B4043F004039360BDE8F0817B
:104D580084F85050BDE8F081A365D8E700200240F0
:104D6800002102400063025800230240FEF0FFFFCA
:104D78004547000839470008B1470008C0FFFF7FD2
:104D880038B503689A68910702D59B68002038BD3A
:104D98009A68D20723D59A68044602F00D02012AC0
:104DA80008D0636D012043F010036365A36D0343CE
:104DB800A36538BD986803210A4A024042F00202FE
:104DC8009A601960FFF794FC054604E0FFF790FC31
:104DD800401B0228E5D823689B68DB07F6D400202F
:104DE80038BD00BFC0FFFF7F38B5574A0446036887
:104DF800934226D002F58072934222D0534B9B688F
:104E080013F4403F22D004F053FD63680546B3F520
:104E1800003F00F08880B3F5403F70D0B3F5803F85
:104E280000F08180FFF77CFC41F2030398422DD803
:104E3800474B9D425DD92268936843F48073936021
:104E480038BD444B9B6813F4403FDCD14FF400203D
:104E580005F0FAFD63680546B3F5101F6DD008D854
:104E6800B3F5E01F55D01AD9B3F5001FDAD14509BB
:104E7800D8E7B3F5201F4AD0B3F5301FD2D1FFF7DA
:104E88004FFC41F20303984233D92D0A324B9D421D
:104E98001DD82268936823F44073936038BDB3F536
:104EA800801F06D00AD9B3F5A01F02D0B3F5C01FE2
:104EB800B8D19B0C5B00B5FBF3F5B3E7B3F5002F56
:104EC800F7D023F40022B2F5802FF2D0AAE7234BC3
:104ED800234A2B4493421ED9224B234A2B44934204
:104EE800226893682BD823F4407343F400739360CB
:104EF80038BD2268936823F48073936038BD8508B1
:104F0800FFF70EFC41F203039842BFD890E7C509AA
:104F180088E7050986E72268936823F4407343F419
:104F28008073936038BD1B0CB5FBF3F5FFF7F8FBF6
:104F380041F203039842A9D87AE7850972E743F456
:104F48004073936038BD00BF0020024000630258E0
:104F5800002D310100230240105E5F00EFA1A0FF89
:104F68000F5E5F00DF4341FF1FBCBE0030B500236A
:104F780083B00193002800F0D080456D0446002DD1
:104F880000F0BA80226893689B0003D59168714B42
:104F98000B4093609368DD0015D46F4B90686F49A0
:104FA8001B6801406E489B0941F08051A0FB030338
:104FB80091609B090193019B2BB1019B013B0193DC
:104FC800019B002BF9D19368D80024D4636D012587
:104FD80043F010036365A36D2B43A365936813F037
:104FE800040F636D1DD1D9061BD4636D23F481733F
:104FF80043F0020363659368DB0728D4594B9A4250
:1050080017D003F580739A4213D0574B9B68D90782
:105018001DD4564A15E09368002513F0040F636DFC
:10502800E1D0636D012543F010032846636503B0A2
:1050380030BD4C4A4E4B92689B681343D80706D440
:105048004C4A9368616823F47C130B439360FFF721
:1050580067FB41F20303A1689842237F52D894F872
:1050680015C01A04206B42EA4C3202430A43012B52
:1050780003D1236A013B42EA4342636A23B103F442
:105088007873A16A0B431A4323683B49D8680140E7
:105098000A43DA609A6812F0040F9A681CD1120762
:1050A8001AD4D868354A217D024042EA8132E16A41
:1050B8000A43DA6094F83820012A3AD01A6922F0B3
:1050C80001021A611A692046616B22F070420A4394
:1050D8001A61FFF789FE2368E268012A21D01A6B5A
:1050E80022F00F021A63636D284623F0030343F08E
:1050F8000103636503B030BDFDF754F9A56584F875
:1051080050503FE71029AAD1617D1A0442EA413282
:10511800216B0A4342F01C02A9E70125284603B087
:1051280030BD196BA26921F00F01013A0A431A63D5
:10513800D9E7D4E9102118690A43114901400A4303
:10514800A16C0A43E16B42EA014242F001021A6192
:10515800B8E700BFC0FFFF5F4C000024C0FFFF6F2F
:10516800632D3E050020024000600258006302588B
:10517800002102400023024003C0F0FFFCBFFFFFF4
:105188001EF800FCF0B5002383B0019390F850306E
:10519800012B40D0012304460E46154680F85030B6
:1051A800FFF7EEFDE8B9676D05F080421B4B06F48A
:1051B80080311B4D3B401B4F43F00203636523685E
:1051C8009E68354015430D4345F000459D609A683B
:1051D800002A0FDB636D23F0030343F001036365CB
:1051E80003E0636D43F010036365002384F85030D7
:1051F80003B0F0BD019A01320192019ABA42E6D990
:10520800636D0022012023F0120384F8502043F03C
:1052180010036365ECE7022003B0F0BDFDEEFFFF6D
:10522800C0FFFE3FFF955A55F0B490F850200E6825
:10523800012A49D00346294A01201C6883F85000F6
:10524800944208D05A6D002142F0200283F8501091
:105258005A65F0BC7047224DAA6852070AD5A26861
:105268005A6D012042F020025A65002283F850202E
:10527800F0BC7047A06810F00400F1D1C6B1DFF8A7
:1052880068C04F68DCF8082022F440423A43CCF862
:105298000820A468AA682243D40713D48A68DCF8D3
:1052A800081016430F4A0A401643CCF80860DCE79A
:1052B8000D498A6822F440428A60A068AA680243BD
:1052C800D00704D50020D0E70220F0BC70478C68D6
:1052D8003046044A22408A60C7E700BF00200240E7
:1052E80000210240E0F0FFFF0023024006494FF68C
:1052F800FF0C0002054BCA6800F4E06002EA0C02E9
:1053080010430343CB60704700ED00E00000FA054E
:105318001B4BDB68C3F3022300B5C3F1070E03F18F
:10532800040CBEF1040F28BF4FF0040EBCF1060FA9
:105338001AD9033B4FF0FF3C0CFA03FC22EA0C029B
:105348004FF0FF3C00280CFA0EFC21EA0C0101FA90
:1053580003F141EA02010ADB09010A4BC9B203441D
:1053680083F800135DF804FB00221346E8E700F019
:105378000F000901044BC9B2034419765DF804FB18
:1053880000ED00E000E100E0FCEC00E0002807DBB5
:1053980000F01F0101234009024A8B4042F82030E7
:1053A800704700BF00E100E000280DDB430901223F
:1053B80000F01F000549203302FA00F041F82300ED
:1053C800BFF34F8FBFF36F8F704700BF00E100E05E
:1053D800431EB3F1807F0CD24FF0E0220020064933
:1053E8004FF0F00C5361072381F823C090611361DB
:1053F80070470120704700BF00ED00E0BFF35F8FEA
:10540800044B00215A6A22F480325A62C3F894107D
:10541800704700BF00ED00E0064B40F00100C3F804
:1054280094005A6A42F480325A62BFF34F8FBFF336
:105438006F8F704700ED00E0174A4378C2F8983044
:10544800017821B3436800B5C2F89C30C37A90F85C
:105458000CC01B0690F80FE043EA0C7390F80AC0E2
:105468000B43817B43EACC4390F80DC043EA8C435D
:1054780090F809C043EA4143017A43EA0E4343EAFC
:105488000C2343EA4103C2F8A0305DF804FBC2F8DC
:105498009C10C2F8A010704700ED00E0704700BFF4
:1054A80008B5FFF7FBFF08BD88B110B503790446BE
:1054B80003F0FF023BB100230221012221711846AB
:1054C8002361227110BD4271FDF764F8F3E70120F2
:1054D800704700BFF8B504464079069F012853D0AD
:1054E8000D461146012226686271022222713DBBD7
:1054F800A068042F374ADFF8E4C0C2633268C0F8F6
:1055080040C042F48052DFF8D8C0C0F84CC03260C6
:1055180042D0082F3DD0002F38D02A46376847F4AC
:105528000057376000F03CFC0023637138BB2368E8
:1055380005F0100101251A688D4015431D60F8BD5E
:10554800E068042F244ADFF89CC0C2633268C0F8C0
:1055580040C042F08052DFF890C0C0F84CC03260C2
:105568002FD0082F24D0D7B13768002247F0005732
:10557800376000F015FC002363710028D7D0236939
:1055880043F004032361F8BD0220F8BD06F10802C8
:10559800C4E706F11002C1E706F10C02BEE737685E
:1055A80006F1140247F00057376000F0F9FBE2E714
:1055B800376806F11C0247F00057376000F0F0FB2F
:1055C800D9E7376806F1180247F00057376000F04E
:1055D800E7FBD0E7515600082D580008615600082F
:1055E800715600083D5800084958000838B54FF46E
:1055F800805C036801F0100E04461D6801200CFA57
:105608000EFC00FA0EF025EA0C051D601A6822EA65
:1056180000021A6071B9A06800F0E2FC2268136801
:1056280023F40053136010B10423237138BD012300
:10563800237138BDE06800F0D3FC2268136823F0BA
:1056480000531360EFE700BF10B5846B2046FDF7E9
:1056580069F80123237110BD806B08B5FDF792F836
:1056680008BD00BF704700BF10B5846B2369204692
:1056780043F004032361FFF7F5FF0123237110BDF5
:10568800704700BF03681A68910410B5044602D534
:105698005A6B920418D41A68910002D55A6B92007A
:1056A80000D410BD04224FF0005120462271226917
:1056B80042F00202226159631A6822F08052BDE862
:1056C80010401A6000F0ACB804224FF40051027187
:1056D800026942F00102026159631A6822F4805299
:1056E8001A60FFF7CDFF2368D5E700BF2DE9F04129
:1056F80043790E460968012B00F08A8001230429AA
:105708000446154643714FF0020303713AD002F084
:10571800100023683269012A2AD0D6E902252A43D3
:1057280007250A43716805FA00F6DD6B824081405F
:1057380025EA06052A434FF48045DA6385401A684E
:1057480022EA050240F6FE751A6085401A6822EAC8
:10575800050201251143C022196082401868002102
:1057680020EA02001860084625716171BDE8F081E1
:105778001F259A6B854022EA0505726982402A43F3
:105788009A63CAE7D2B9FEF7B3FFDFF88C80074601
:1057980004E0FEF7ADFFC01B012830D823685B6B1F
:1057A80013EA080FF5D10120FEF7A8FF2368B269B4
:1057B8001A640DE0FEF79CFF012820D823685B6B74
:1057C800002BF7DB0120FEF799FF2368B2695A64C2
:1057D80005F0100040F2FF319A6C814022EA010284
:1057E800F16981400A43FF219A648140DA6C22EA18
:1057F8000102316A81400A433168DA648AE7236921
:10580800032243F00803104623612271BDE8F081AA
:105818000220BDE8F08100BF00800020704700BF73
:10582800704700BF10B5846B2046FCF7EBFF0123DF
:10583800237110BD806B08B5FCF7CEFF08BD00BF13
:1058480010B5846B2369204643F004032361FFF7F6
:10585800E5FF0123237110BD0268344B344930B48D
:10586800344D354CAA4218BF9A420CBF012300237D
:105878008A4208BF43F001033031A24208BF43F017
:10588800010330348A4208BF43F001033031A24299
:1058980008BF43F0010330348A4208BF43F00103D4
:1058A80001F55C71A24208BF43F0010304F55C7482
:1058B8008A4208BF43F001033031A24208BF43F0D7
:1058C800010330348A4208BF43F001033031A24259
:1058D80008BF43F0010330348A4208BF43F0010394
:1058E8003031A24208BF43F001038A4208BF43F0A7
:1058F800010313B9114B9A4213D1D3B21049114C79
:10590800103BA1FB03515F2B0F4BC1F3021103EABC
:105918000203615C88BF0433C1658365184630BCE7
:10592800704722F0FF038365F8E700BF10000240CC
:10593800400002402800024058000240B8040240DB
:10594800ABAAAAAA5016010800FCFFFF0368294A5F
:10595800294930B4294D2A4CAB4218BF93420CBF99
:10596800012200228B4208BF42F001022831A342E3
:1059780008BF42F0010228348B4208BF42F00102FE
:105988002831A34208BF42F001028B4208BF42F00F
:10599800010212B91B4A934213D1DBB21A4C1B4ABB
:1059A8000121083B1A4DA4FB0343456602EB131281
:1059B800C3F30413920001FA03F30266836630BC52
:1059C8007047DAB21349144C1944103AA829A4FBB9
:1059D80002234FEA131300D80833104A03F01F05B7
:1059E80001210F4C1A44A940446692008166026660
:1059F800E5E700BF08540258305402581C540258B6
:105A08004454025894540258CDCCCCCC009600167D
:105A180080580258F0FBFDBFABAAAAAA008200106A
:105A28008008024070B50446FEF762FE002C00F0C4
:105A3800C68023680546954A934248D01832934257
:105A480045D0303292498B4218BF934201F1300160
:105A58000CBF012200228B4208BF42F0010218311C
:105A68008B4208BF42F0010218318B4208BF42F056
:105A7800010218318B4208BF42F0010201F556714C
:105A88008B4208BF42F0010218318B4208BF42F036
:105A9800010218318B4208BF42F0010218318B42D3
:105AA80008BF42F0010218318B4208BF42F00102E0
:105AB80018318B4208BF42F0010218318B4208BFEF
:105AC80042F001021AB9734A934240F0F58002226B
